:100000000C942E000C94C4050C94C4050C94C405E7
:100010000C94C4050C94C4050C94C4050C94C4053C
:100020000C94C4050C94C4050C94C4050C94C4052C
:100030000C94C4050C94C4050C94C4050C94C4051C
:100040000C94C4050C94C4050C94C4050C94C4050C
:100050000C94C4050060006B000B960011241FBEB9
:10006000CFE5D8E0DEBFCDBFE4E5F0E040E017C06B
:10007000B591A59135912591059107FD0CC09591FC
:100080008591EF01F92FE82F05900D92A217B30784
:10009000D9F7FE0104C01D92A217B307E1F7EB35B3
:1000A000F40731F70E9455020C94B905F894FFCF7C
:1000B000202B2C202D2C202A2C202F293A002045C3
:1000C0006E7465722074776F206F706572616E64F4
:1000D000733A20004572726F7221206F70657261F1
:1000E000746F72206973206E6F7420636F72726513
:0300F00063740036
:1000F30037343163383532303936333D2F782D2B51
:10010400CF93C82F40E061E081E00E94490389EF6A
:1001140090E00197F1F700C0000041E062E081E067
:100124000E94490389EF90E00197F1F700C00000B5
:100134004C2F407150E055954795559547955595E9
:1001440047955595479560E083E00E9449034C2FFD
:10015400407250E055954795559547955595479567
:10016400559547955595479561E083E00E9449036D
:100174004C2F407450E0042E452F000C441F550BA7
:10018400000C441F551F62E083E00E9449034C2F7A
:10019400441F4427441F63E083E00E94490389EF1E
:1001A40090E00197F1F700C0000040E062E081E0D8
:1001B4000E94490389EF90E00197F1F700C0000025
:1001C40041E062E081E00E94490389EF90E00197F9
:1001D400F1F700C000004C2F417060E083E00E9402
:1001E40049034C2F427050E05595479561E083E0F8
:1001F4000E9449034C2F447050E0559547955595FE
:10020400479562E083E00E944903C8704C2F50E098
:1002140055954795559547955595479563E083E0E2
:100224000E94490389EF90E00197F1F700C00000B4
:1002340040E062E081E00E94490389EF90E0019789
:0A024400F1F700C00000CF9108950B
:10024E00CF93C82F41E061E081E00E94490389EF1E
:10025E0090E00197F1F700C0000041E062E081E01C
:10026E000E94490389EF90E00197F1F700C000006A
:10027E004C2F407150E0559547955595479555959E
:10028E0047955595479560E083E00E9449034C2FB2
:10029E00407250E05595479555954795559547951C
:1002AE00559547955595479561E083E00E94490322
:1002BE004C2F407450E0042E452F000C441F550B5C
:1002CE00000C441F551F62E083E00E9449034C2F2F
:1002DE00441F4427441F63E083E00E94490389EFD3
:1002EE0090E00197F1F700C0000040E062E081E08D
:1002FE000E94490389EF90E00197F1F700C00000DA
:10030E0041E062E081E00E94490389EF90E00197AD
:10031E00F1F700C000004C2F417060E083E00E94B6
:10032E0049034C2F427050E05595479561E083E0AC
:10033E000E9449034C2F447050E0559547955595B2
:10034E00479562E083E00E944903C8704C2F50E04D
:10035E0055954795559547955595479563E083E097
:10036E000E94490389EF90E00197F1F700C0000069
:10037E0040E062E081E00E94490389EF90E001973E
:0A038E00F1F700C00000CF910895C0
:100398009F92AF92BF92CF92DF92EF92FF920F930C
:1003A8001F93CF93DF93CDB7DEB728970FB6F89496
:1003B800DEBF0FBECDBF87E0898386E08A8395E0E4
:1003C8009B8383E08C839D8394E09E838F8382E06C
:1003D80088876894992495F8B12C4CC0EB2CF12CA3
:1003E800E1E0F0E0EC0FFD1FEE0DFF1DA08040E006
:1003F8006A2D80E00E94DF0400E034C0C02ED12CBA
:10040800E5E0F0E0EC0FFD1FEC0DFD1D1081612F04
:1004180080E00E944905E1EEF4E03197F1F700C071
:10042800000081111CC0E1EEF4E03197F1F700C043
:1004380000009701220F331F220F331F2C0D3D1D83
:10044800032E000C440B2D503F4F4F4FF901949051
:1004580047FD908004C0612F80E00E9449058823F1
:10046800D1F30F5F043050F241E06A2D80E00E9422
:10047800DF04B394F3E0FB1508F0B0CF892D28967C
:100488000FB6F894DEBF0FBECDBFDF91CF911F919D
:100498000F91FF90EF90DF90CF90BF90AF909F901B
:0204A8000895B5
:1004AA00CF93DF930E9469040E94140460E080E005
:1004BA000E9432050E94CC0190E00E949D0487EAC6
:1004CA0091E60197F1F700C0000060EB70E080E070
:1004DA000E94FE040E94CC01C82F87EA91E6019788
:1004EA00F1F700C000006EEB70E080E00E94FE04AD
:1004FA000E94CC01D82F0E94CC01682F87EA91E68E
:10050A000197F1F700C00000CB3249F018F4CA3263
:10051A00F1F037C0CD3279F0CF3231F132C08D2FC0
:10052A00860F90E00E949D0487EA91E60197F1F711
:10053A0000C0000031C08D2F861B90E00E949D04F0
:10054A0087EA91E60197F1F700C0000025C0D69F1F
:10055A00802D112490E00E949D0487EA91E601977C
:10056A00F1F700C0000018C08D2F0E94AD0590E081
:10057A000E949D0487EA91E60197F1F700C0000006
:10058A000BC064ED70E080E00E94FE0487EA91E609
:10059A000197F1F700C0000080E090E0DF91CF9171
:0205AA000895B2
:1005AC00683008F06FC0843008F06CC0813001F105
:1005BC0030F08230B1F1833009F44CC008954130F1
:1005CC0059F42AB381E090E002C0880F991F6A9514
:1005DC00E2F7822B8ABB08952AB381E090E002C037
:1005EC00880F991F6A95E2F7809582238ABB08953C
:1005FC00413059F427B381E090E002C0880F991F75
:10060C006A95E2F7822B87BB089527B381E090E0CF
:10061C0002C0880F991F6A95E2F78095822387BBE9
:10062C000895413059F424B381E090E002C0880F62
:10063C00991F6A95E2F7822B84BB089524B381E05D
:10064C0090E002C0880F991F6A95E2F7809582238B
:10065C0084BB0895413059F421B381E090E002C08D
:10066C00880F991F6A95E2F7822B81BB089521B3FD
:10067C0081E090E002C0880F991F6A95E2F780959F
:06068C00822381BB0895EA
:10069200683008F06FC0843008F06CC0813001F11E
:1006A20030F08230B1F1833009F44CC0089541300A
:1006B20059F42BB381E090E002C0880F991F6A952C
:1006C200E2F7822B8BBB08952BB381E090E002C04E
:1006D200880F991F6A95E2F7809582238BBB089554
:1006E200413059F428B381E090E002C0880F991F8D
:1006F2006A95E2F7822B88BB089528B381E090E0E7
:1007020002C0880F991F6A95E2F78095822388BB01
:100712000895413059F425B381E090E002C0880F7A
:10072200991F6A95E2F7822B85BB089525B381E074
:1007320090E002C0880F991F6A95E2F780958223A4
:1007420085BB0895413059F422B381E090E002C0A4
:10075200880F991F6A95E2F7822B82BB089522B314
:1007620081E090E002C0880F991F6A95E2F78095B8
:06077200822382BB089502
:100778008F929F92AF92BF92CF92DF92EF92FF92A9
:100788000F931F93CF93DF93FC015B017A019923A9
:1007980024F488248A94982C03C088248394912C68
:1007A800C0E0D0E001C0E8018E010F5F1F4F650176
:1007B800CC0EDD1ECF01B7010E9475059C0199235F
:1007C80024F422273327281B390BD901A05ABF4FFD
:1007D8008C91D6018C93CF01B7010E947505FB015E
:1007E800309709F7992044F4F501E00FF11F8DE2E5
:1007F80080838E010E5F1F4FF501E00FF11F1082FD
:10080800C5010E941905DF91CF911F910F91FF90AB
:10081800EF90DF90CF90BF90AF909F908F9008950A
:1008280041E060E080E00E94C00441E061E080E0D7
:100838000E94C00441E062E080E00E94C00441E000
:1008480063E080E00E94C00441E060E080E00E9434
:10085800DF0441E061E080E00E94DF0441E062E003
:1008680080E00E94DF0441E063E080E00E94DF0452
:1008780040E064E080E00E94C00440E065E080E081
:100888000E94C00440E066E080E00E94C00440E0AE
:1008980067E080E00E94C00464E070E080E090E0DF
:1008A8000E949D0565E070E080E090E00E949D0553
:1008B80066E070E080E090E00E949D0567E070E0EF
:0A08C80080E090E00E949D05089575
:1008D20041E061E081E00E94D60241E062E081E015
:1008E2000E94D60287E893E10197F1F700C0000069
:1008F20041E060E083E00E94D60241E061E083E0F3
:100902000E94D60241E062E083E00E94D60241E00A
:1009120063E083E00E94D60283E30E94820082E3C6
:100922000E94820088E20E9482008CE00E94820083
:0809320081E00E94820008959B
:10093A000F931F93CF93DF93CDB7DEB760970FB6B0
:10094A00F894DEBF0FBECDBF4AE050E08E010F5FC4
:10095A001F4FB8010E94BC03B80180E80E94FE0440
:10096A0060960FB6F894DEBF0FBECDBFDF91CF9170
:06097A001F910F9108958A
:10098000413069F4E82FF0E0218181E090E002C07D
:10099000880F991F6A95E2F7822B81830895411190
:1009A0000DC0E82FF0E0218181E090E002C0880FC7
:0E09B000991F6A95E2F780958223818308954E
:1009BE00413069F4E82FF0E0228181E090E002C03E
:1009CE00880F991F6A95E2F7822B82830895411151
:1009DE000DC0E82FF0E0228181E090E002C0880F88
:0E09EE00991F6A95E2F780958223828308950F
:1009FC00CF92DF92EF92CF936B01E82EC0E003C051
:100A0C000E942701CF5FAE2DC6018C0F911DA11D39
:100A1C00FC018491A7FD80818111F2CFCF91EF90E1
:060A2C00DF90CF90089559
:100A3200CF93DF93EC01BC0180E80E945F05019730
:100A4200FE01E80FF91F07C0DE018D9190819883A6
:100A520080833197ED01CE17DF07B0F3DF91CF919D
:020A62000895F5
:100A6400813031F070F0823031F0833039F00AC0D7
:100A740090E4960F07C090E1960F04C090E5960F9E
:0E0A840001C0962F892F80680E94820008957D
:100A9200E82FF0E0408181E090E09C01062E02C048
:100AA200220F331F0A94E2F7842F90E082239323CC
:0C0AB20002C0959587956A95E2F70895BB
:100ABE00CF92DF92EF926B01E82EA82FCB01FC01B3
:100ACE002491A7FD2081222319F00196A11DF7CFB5
:0C0ADE008C199D09EF90DF90CF900895D7
:100AEA0097FB072E16F4009407D077FD09D00E94D1
:100AFA00890507FC05D03EF4909581959F4F08958E
:080B0A00709561957F4F08957D
:100B1200AA1BBB1B51E107C0AA1FBB1FA617B70721
:100B220010F0A61BB70B881F991F5A95A9F780953D
:080B32009095BC01CD0108956E
:100B3A0027B381E090E002C0880F991F6A95E2F717
:100B4A00982F9095922397BB98B3892B88BB0895C9
:100B5A00991B79E004C0991F961708F0961B881F05
:080B6A007A95C9F78095089502
:100B7200EC010E94C9050E94C805CE010E94CA0567
:060B8200CE010E94C60531
:040B88000C940000C9
:040B8C000E9456006D
:020B90000895C6
:020B92000895C4
:020B94000895C2
:0B0B9600303132333435363738390047
:00000001FF
