:100000000C942E000C94FA070C94FA070C94FA073F
:100010000C94FA070C94FA070C94FA070C94FA075C
:100020000C94FA070C94FA070C94FA070C94FA074C
:100030000C94FA070C94FA070C94FA070C94FA073C
:100040000C94FA070C94FA070C94FA070C94FA072C
:100050000C94FA07006000680010020011241FBE13
:10006000CFE5D8E0DEBFCDBFE4E5F0E040E017C06B
:10007000B591A59135912591059107FD0CC09591FC
:100080008591EF01F92FE82F05900D92A217B30784
:10009000D9F7FE0104C01D92A217B307E1F7EB35B3
:1000A000F40731F70E9458000C94EB07F894FFCF47
:1000B000AF92BF92CF92DF92EF92FF920F931F9376
:1000C000CF93DF93CDB7DEB728970FB6F894DEBF96
:1000D0000FBECDBF0E945D0787B38E7F87BB87B3FE
:1000E0008D7F87BB88B3816088BB88B3826088BB03
:1000F00088E0E0E6F0E0DE01119601900D928A952D
:10010000E1F7CE0101960E94910785E80E942D0536
:1001100080E00E94D2052FE38DE093E021508040E3
:100120009040E1F700C000000E94F60780E40E94C2
:100130002D05C12CD12CAE014F5F5F4FB80180E07F
:1001400090E00E94B30785E80E942D0580E00E94A0
:10015000D2052FE38DE093E0215080409040E1F7FD
:1001600000C000000E94F60780E40E942D050830C0
:10017000110549F42FEFA21AB20AEE24E394F12CF0
:1001800000E010E004C00C5F1F4FE12CF12C85E073
:10019000A816B10409F44EC495E0C916D10409F4B7
:1001A00049C4AE014F5F5F4FB801C7010E94B3075A
:1001B00085E80E942D0580E00E94D2052FE38DE0A6
:1001C00093E0215080409040E1F700C000000E9481
:1001D000F60780E40E942D050830110549F42FEF41
:1001E000A21AB20A8FEFE81AF80A00E010E002C083
:1001F0000C5F1F4F95E0A916B10409F41BC425E05C
:10020000C216D10409F416C4AE014F5F5F4FB801A6
:10021000C7010E94B30785E80E942D0580E00E9477
:10022000D2058FE39DE023E0815090402040E1F72C
:1002300000C000000E94F60780E40E942D050830EF
:10024000110549F48FEFA81AB80A9FEFE91AF90AC5
:1002500000E010E002C00C5F1F4F25E0A216B104C1
:1002600009F4E8C385E0C816D10409F4E3C3AE017C
:100270004F5F5F4FB801C7010E94B30785E80E9436
:100280002D0580E00E94D2059FE32DE083E0915090
:1002900020408040E1F700C000000E94F60780E4A3
:1002A0000E942D050830110549F49FEFA91AB90ADB
:1002B0002FEFE21AF20A00E010E002C00C5F1F4FBD
:1002C00085E0A816B10409F4B5C395E0C916D104B8
:1002D00009F4B0C3AE014F5F5F4FB801C7010E9480
:1002E000B30785E80E942D0580E00E94D2052FE328
:1002F0008DE093E0215080409040E1F700C0000085
:100300000E94F60780E40E942D050830110549F48B
:100310002FEFA21AB20A8FEFE81AF80A00E010E0F5
:1003200002C00C5F1F4F95E0A916B10409F482C307
:1003300025E0C216D10409F47DC3AE014F5F5F4FC3
:10034000B801C7010E94B30785E80E942D0580E02F
:100350000E94D2058FE39DE023E081509040204031
:10036000E1F700C000000E94F60780E40E942D051E
:100370000830110549F48FEFA81AB80A9FEFE91A5F
:10038000F90A00E010E002C00C5F1F4F25E0A21642
:10039000B10409F44FC385E0C816D10409F44AC377
:1003A000AE014F5F5F4FB801C7010E94B30785E8F8
:1003B0000E942D0580E00E94D2059FE32DE083E09E
:1003C000915020408040E1F700C000000E94F607F5
:1003D00080E40E942D050830110549F49FEFA91A09
:1003E000B90A2FEFE21AF20A00E010E002C00C5F37
:1003F0001F4F85E0A816B10409F41CC395E0C91687
:10040000D10409F417C3AE014F5F5F4FB801C701B4
:100410000E94B30785E80E942D0580E00E94D20566
:100420002FE38DE093E0215080409040E1F700C041
:1004300000000E94F60780E40E942D050830110597
:1004400049F42FEFA21AB20A8FEFE81AF80A00E077
:1004500010E002C00C5F1F4F95E0A916B10409F42B
:10046000E9C225E0C216D10409F4E4C2AE014F5F2F
:100470005F4FB801C7010E94B30785E80E942D05B0
:1004800080E00E94D2058FE39DE023E08150904000
:100490002040E1F700C000000E94F60780E40E94BF
:1004A0002D050830110549F48FEFA81AB80A9FEFFF
:1004B000E91AF90A00E010E002C00C5F1F4F25E0C6
:1004C000A216B10409F4B6C285E0C816D10409F435
:1004D000B1C2AE014F5F5F4FB801C7010E94B307C1
:1004E00085E80E942D0580E00E94D2059FE32DE063
:1004F00083E0915020408040E1F700C000000E945E
:10050000F60780E40E942D050830110549F49FEF9D
:10051000A91AB90A2FEFE21AF20A00E010E002C0AD
:100520000C5F1F4F85E0A816B10409F483C295E063
:10053000C916D10409F47EC2AE014F5F5F4FB80106
:10054000C7010E94B30785E80E942D0580E00E9444
:10055000D2052FE38DE093E0215080409040E1F7F9
:1005600000C000000E94F60780E40E942D050830BC
:10057000110549F42FEFA21AB20A8FEFE81AF80A10
:1005800000E010E002C00C5F1F4F95E0A916B10417
:1005900009F450C225E0C216D10409F44BC2AE01E1
:1005A0004F5F5F4FB801C7010E94B30785E80E9403
:1005B0002D0580E00E94D2058FE39DE023E081506D
:1005C00090402040E1F700C000000E94F60780E460
:1005D0000E942D050115110549F48FEFC81AD80A9C
:1005E00091E0E91AF10808E010E002C00450110996
:1005F00025E0A216B10409F41DC285E0C816D10495
:1006000009F418C2AE014F5F5F4FB801C7010E94E5
:10061000B30785E80E942D0580E00E94D2059FE384
:100620002DE083E0915020408040E1F700C00000C1
:100630000E94F60780E40E942D050115110549F47A
:100640009FEFC91AD90A21E0E21AF10808E010E088
:1006500002C00450110985E0A816B10409F4EAC1EA
:1006600095E0C916D10409F4E5C1AE014F5F5F4FB3
:10067000B801C7010E94B30785E80E942D0580E0FC
:100680000E94D2052FE38DE093E0215080409040FE
:10069000E1F700C000000E94F60780E40E942D05EB
:1006A0000115110549F42FEFC21AD20A81E0E81AA8
:1006B000F10808E010E002C00450110995E0A91605
:1006C000B10409F4B7C125E0C216D10409F4B2C1DE
:1006D000AE014F5F5F4FB801C7010E94B30785E8C5
:1006E0000E942D0580E00E94D2058FE39DE023E06B
:1006F000815090402040E1F700C000000E94F607C2
:1007000080E40E942D050115110549F48FEFC81AE8
:10071000D80A91E0E91AF10808E010E002C004509C
:10072000110925E0A216B10409F484C185E0C816B8
:10073000D10409F47FC1AE014F5F5F4FB801C7011B
:100740000E94B30785E80E942D0580E00E94D20533
:100750009FE32DE083E0915020408040E1F700C00E
:1007600000000E94F60780E40E942D050115110586
:1007700049F49FEFC91AD90A21E0E21AF10808E00A
:1007800010E002C00450110985E0A816B10409F474
:1007900051C195E0C916D10409F44CC1AE014F5FB7
:1007A0005F4FB801C7010E94B30785E80E942D057D
:1007B00080E00E94D2052FE38DE093E0215080403D
:1007C0009040E1F700C000000E94F60780E40E941C
:1007D0002D050115110549F42FEFC21AD20A81E047
:1007E000E81AF10808E010E002C00450110995E091
:1007F000A916B10409F41EC125E0C216D10409F4FA
:1008000019C1AE014F5F5F4FB801C7010E94B30726
:1008100085E80E942D0580E00E94D2058FE39DE0CF
:1008200023E0815090402040E1F700C000000E948A
:10083000F60780E40E942D050115110549F48FEF9C
:10084000C81AD80A91E0E91AF10808E010E002C0DD
:100850000450110925E0A216B10409F4EBC085E0AB
:10086000C816D10409F4E6C0AE014F5F5F4FB8016E
:10087000C7010E94B30785E80E942D0580E00E9411
:10088000D2059FE32DE083E0915020408040E1F7C6
:1008900000C000000E94F60780E40E942D050115AB
:1008A000110549F49FEFC91AD90A21E0E21AF108AB
:1008B00008E010E002C00450110985E0A816B10458
:1008C00009F4B8C095E0C916D10409F4B3C0AE016B
:1008D0004F5F5F4FB801C7010E94B30785E80E94D0
:1008E0002D0580E00E94D2052FE38DE093E021509A
:1008F00080409040E1F700C000000E94F60780E4CD
:100900000E942D050115110549F42FEFC21AD20AD4
:1009100081E0E81AF10808E010E002C00450110973
:1009200095E0A916B10409F485C025E0C216D104EA
:1009300009F480C0AE014F5F5F4FB801C7010E944C
:10094000B30785E80E942D0580E00E94D2058FE361
:100950009DE023E0815090402040E1F700C000007E
:100960000E94F60780E40E942D050115110549F447
:100970008FEFC81AD80A91E0E91AF10808E010E0F0
:1009800002C00450110925E0A216B10409F452C0B6
:1009900085E0C816D10409F44DC0AE014F5F5F4F2A
:1009A000B801C7010E94B30785E80E942D0580E0C9
:1009B0000E94D2059FE32DE083E0915020408040CB
:1009C000E1F700C000000E94F60780E40E942D05B8
:1009D0000115110549F49FEFC91AD90A21E0E21A5D
:1009E000F10808E010E002C00450110985E0A816E3
:1009F000B10401F195E0C916D104E1F0AE014F5FF9
:100A00005F4FB801C7010E94B30785E80E942D051A
:100A100080E00E94D2052FE38DE093E021508040DA
:100A20009040E1F700C000000E94F60780E40E94B9
:100A30002D0581CB80E090E028960FB6F894DEBFBC
:100A40000FBECDBFDF91CF911F910F91FF90EF901F
:0A0A5000DF90CF90BF90AF900895A3
:100A5A00CF93C82F40E061E080E00E94EA0689EF68
:100A6A0090E00197F1F700C0000041E062E080E009
:100A7A000E94EA0689EF90E00197F1F700C00000B2
:100A8A004C2F407150E0559547955595479555958A
:100A9A0047955595479563E080E00E94EA064C2FFA
:100AAA00407250E055954795559547955595479508
:100ABA00559547955595479564E080E00E94EA066A
:100ACA004C2F407450E0042E452F000C441F550B48
:100ADA00000C441F551F65E080E00E94EA064C2F77
:100AEA00441F4427441F66E080E00E94EA0689EF1B
:100AFA0090E00197F1F700C0000040E062E080E07A
:100B0A000E94EA0689EF90E00197F1F700C0000021
:100B1A0041E062E080E00E94EA0689EF90E00197F6
:100B2A00F1F700C000004C2F417063E080E00E94A2
:100B3A00EA064C2F427050E05595479564E080E0F4
:100B4A000E94EA064C2F447050E0559547955595FA
:100B5A00479565E080E00E94EA06C8704C2F50E095
:100B6A0055954795559547955595479566E080E083
:100B7A000E94EA0689EF90E00197F1F700C00000B1
:100B8A0040E062E080E00E94EA0689EF90E0019787
:0A0B9A00F1F700C00000CF910895AC
:100BA400CF93C82F41E061E080E00E94EA0689EF1C
:100BB40090E00197F1F700C0000041E062E080E0BE
:100BC4000E94EA0689EF90E00197F1F700C0000067
:100BD4004C2F407150E0559547955595479555953F
:100BE40047955595479563E080E00E94EA064C2FAF
:100BF400407250E0559547955595479555954795BD
:100C0400559547955595479564E080E00E94EA061E
:100C14004C2F407450E0042E452F000C441F550BFC
:100C2400000C441F551F65E080E00E94EA064C2F2B
:100C3400441F4427441F66E080E00E94EA0689EFCF
:100C440090E00197F1F700C0000040E062E080E02E
:100C54000E94EA0689EF90E00197F1F700C00000D6
:100C640041E062E080E00E94EA0689EF90E00197AB
:100C7400F1F700C000004C2F417063E080E00E9457
:100C8400EA064C2F427050E05595479564E080E0A9
:100C94000E94EA064C2F447050E0559547955595AF
:100CA400479565E080E00E94EA06C8704C2F50E04A
:100CB40055954795559547955595479566E080E038
:100CC4000E94EA0689EF90E00197F1F700C0000066
:100CD40040E062E080E00E94EA0689EF90E001973C
:0A0CE400F1F700C00000CF91089561
:100CEE00683008F06FC0843008F06CC0813001F1BC
:100CFE0030F08230B1F1833009F44CC008954130A8
:100D0E0059F42AB381E090E002C0880F991F6A95CA
:100D1E00E2F7822B8ABB08952AB381E090E002C0ED
:100D2E00880F991F6A95E2F7809582238ABB0895F2
:100D3E00413059F427B381E090E002C0880F991F2B
:100D4E006A95E2F7822B87BB089527B381E090E086
:100D5E0002C0880F991F6A95E2F78095822387BBA0
:100D6E000895413059F424B381E090E002C0880F19
:100D7E00991F6A95E2F7822B84BB089524B381E014
:100D8E0090E002C0880F991F6A95E2F78095822342
:100D9E0084BB0895413059F421B381E090E002C044
:100DAE00880F991F6A95E2F7822B81BB089521B3B4
:100DBE0081E090E002C0880F991F6A95E2F7809556
:060DCE00822381BB0895A1
:100DD400683008F06FC0843008F06CC0813001F1D5
:100DE40030F08230B1F1833009F44CC008954130C1
:100DF40059F42BB381E090E002C0880F991F6A95E3
:100E0400E2F7822B8BBB08952BB381E090E002C004
:100E1400880F991F6A95E2F7809582238BBB08950A
:100E2400413059F428B381E090E002C0880F991F43
:100E34006A95E2F7822B88BB089528B381E090E09D
:100E440002C0880F991F6A95E2F78095822388BBB8
:100E54000895413059F425B381E090E002C0880F31
:100E6400991F6A95E2F7822B85BB089525B381E02B
:100E740090E002C0880F991F6A95E2F7809582235B
:100E840085BB0895413059F422B381E090E002C05B
:100E9400880F991F6A95E2F7822B82BB089522B3CB
:100EA40081E090E002C0880F991F6A95E2F780956F
:060EB400822382BB0895B9
:100EBA0041E061E080E00E94770641E062E080E084
:100ECA000E94770687E893E10197F1F700C00000D6
:100EDA0041E063E080E00E94770641E064E080E060
:100EEA000E94770641E065E080E00E94770641E0D3
:100EFA0066E080E00E94770683E30E942D0582E384
:100F0A000E942D0588E20E942D058CE00E942D0585
:080F1A0081E00E942D050895FD
:100F22000F931F93CF938C0180E40E942D0587EAD3
:100F320091E60197F1F700C00000C0E00DC0F80192
:100F4200EC0FF11D80810E94D20587EA91E601979C
:100F5200F1F700C00000CF5FC83088F3CF911F9136
:040F62000F9108954E
:100F66000F931F93CF938A010E94D40787EA91E6D5
:100F76000197F1F700C00000C0E00DC0F801EC0FCA
:100F8600F11D80810E94D20587EA91E60197F1F76B
:100F960000C00000CF5FC83088F3CF911F910F913A
:020FA6000895AC
:100FA800813031F070F0823031F0833039F00AC08E
:100FB80090E4960F07C090E1960F04C090E5960F55
:0E0FC80001C0962F892F80680E942D05089584
:100FD600EC010E94FF070E94FE07CE010E94000856
:060FE600CE010E94FC0791
:080FEC0081E00E942D0508952B
:040FF4000C94000059
:040FF8000E945600FD
:020FFC00089556
:020FFE00089554
:02100000089551
:0810020000000E0E0E000000BC
:00000001FF
