:100000000C942A000C943F000C943F000C943F0089
:100010000C943F000C943F000C943F000C943F0064
:100020000C943F000C943F000C943F000C943F0054
:100030000C943F000C943F000C943F000C943F0044
:100040000C943F000C943F000C943F000C943F0034
:100050000C943F0011241FBECFE5D8E0DEBFCDBF1A
:1000600010E0A0E6B0E0E2E4F6E002C005900D92F8
:10007000A036B107D9F70E94F9020C941F030C9423
:1000800000004423B9F1413009F06BC0813089F0A0
:1000900028F08230C9F0833011F108952AB381E04D
:1000A00090E002C0880F991F6A95E2F7822B8ABB05
:1000B000089527B381E090E002C0880F991F6A95E8
:1000C000E2F7822B87BB089524B381E090E002C061
:1000D000880F991F6A95E2F7822B84BB089521B39C
:1000E00081E090E002C0880F991F6A95E2F7822BA9
:1000F00081BB0895813091F028F08230D9F08330AF
:1001000029F108952AB381E090E002C0880F991F79
:100110006A95E2F7809582238ABB089527B381E030
:1001200090E002C0880F991F6A95E2F780958223BC
:1001300087BB089524B381E090E002C0880F991F27
:100140006A95E2F78095822384BB089521B381E00C
:1001500090E002C0880F991F6A95E2F7809582238C
:1001600081BB08954423B9F1413009F06BC081305F
:1001700089F028F08230C9F0833011F108952BB353
:1001800081E090E002C0880F991F6A95E2F7822B08
:100190008BBB089528B381E090E002C0880F991FBF
:1001A0006A95E2F7822B88BB089525B381E090E041
:1001B00002C0880F991F6A95E2F7822B85BB0895CC
:1001C00022B381E090E002C0880F991F6A95E2F7A0
:1001D000822B82BB0895813091F028F08230D9F0D3
:1001E000833029F108952BB381E090E002C0880F9D
:1001F000991F6A95E2F7809582238BBB089528B3F7
:1002000081E090E002C0880F991F6A95E2F780951F
:10021000822388BB089525B381E090E002C0880F57
:10022000991F6A95E2F78095822385BB089522B3D2
:1002300081E090E002C0880F991F6A95E2F78095EF
:10024000822382BB0895813089F028F08230C9F082
:10025000833011F108952BB381E090E002C0880F44
:10026000991F6A95E2F7822B8BBB089528B381E032
:1002700090E002C0880F991F6A95E2F7822B88BB35
:10028000089525B381E090E002C0880F991F6A9518
:10029000E2F7822B85BB089522B381E090E002C093
:1002A000880F991F6A95E2F7822B82BB089541E07F
:1002B00067E083E00E94410041E066E083E00E9445
:1002C000410041E065E083E00E94410041E063E0DD
:1002D00083E00E94410041E067E083E00E94B200B9
:1002E00041E066E083E00E94B20041E065E083E027
:1002F0000E94B20041E063E083E00E94B20040E06F
:1003000065E082E00E94410040E064E082E00E94FB
:10031000410040E063E082E00E94410040E062E092
:1003200082E00E94410065E082E00E94230164E0D7
:1003300082E00E94230163E082E00E94230162E0E8
:1003400082E00E9423010895CF93C82F40E063E02C
:1003500080E00E94B20040E062E080E00E94B200D3
:100360004C2F441F4427441F64E081E00E94B200E8
:10037000C6FB442740F962E081E00E94B200C5FB61
:10038000442740F961E081E00E94B200C4FB4427A9
:1003900040F960E081E00E94B20041E062E080E06C
:1003A0000E94B20089EF90E00197F1F700C00000D1
:1003B00040E062E080E00E94B20089EF90E00197A7
:1003C000F1F700C00000C3FB442740F964E081E07E
:1003D0000E94B200C2FB442740F962E081E00E9423
:1003E000B200C1FB442740F961E081E00E94B20005
:1003F0004C2F417060E081E00E94B20041E062E079
:1004000080E00E94B20089EF90E00197F1F700C010
:10041000000040E062E080E00E94B20081EE94E0E3
:100420000197F1F700C00000CF91089541E063E02B
:1004300080E00E94410041E062E080E00E944100D3
:1004400041E060E081E00E94410041E061E081E044
:100450000E94410041E062E081E00E94410041E0F1
:1004600064E081E00E94410087EA91E60197F1F79C
:1004700000C0000040E063E080E00E94B20040E085
:1004800062E080E00E94B20040E064E081E00E940F
:10049000B20040E062E081E00E94B20041E061E031
:1004A00081E00E94B20040E060E081E00E94B20082
:1004B00041E062E080E00E94B20089EF90E00197A5
:1004C000F1F700C0000040E062E080E00E94B2006E
:1004D00088E20E94A40187EA91E60197F1F700C043
:1004E00000008FE00E94A40187EA91E60197F1F7EE
:1004F00000C0000081E00E94A40187EA91E6019714
:10050000F1F700C0000086E00E94A4010895CF9397
:10051000C82F41E063E080E00E94B20040E062E06A
:1005200080E00E94B2004C2F441F4427441F64E027
:1005300081E00E94B200C6FB442740F962E081E0FE
:100540000E94B200C5FB442740F961E081E00E94AF
:10055000B200C4FB442740F960E081E00E94B20091
:1005600041E062E080E00E94B20089EF90E00197F4
:10057000F1F700C0000040E062E080E00E94B200BD
:1005800089EF90E00197F1F700C00000C3FB44271A
:1005900040F964E081E00E94B200C2FB442740F9C8
:1005A00062E081E00E94B200C1FB442740F961E0B3
:1005B00081E00E94B2004C2F417060E081E00E9417
:1005C000B20041E062E080E00E94B20089EF90E07A
:1005D0000197F1F700C0000040E062E080E00E9477
:1005E000B20089EF90E00197F1F700C00000CF91D1
:1005F00008950E9457010E94160280E40E94A401FF
:1006000081E00E94870281E00E9487028FE00E94C1
:1006100087028FE00E9487028FE00E94870281E0BC
:100620000E94870281E00E94870281E00E94870287
:1006300080E80E94A40180E00E948702FFCFF89426
:02064000FFCFEA
:00000001FF
