:100000000C942E000C9473050C9473050C947305DA
:100010000C9473050C9473050C9473050C94730580
:100020000C9473050C9473050C9473050C94730570
:100030000C9473050C9473050C9473050C94730560
:100040000C9473050C9473050C9473050C94730550
:100050000C94730500600083000AF40011241FBE95
:10006000CFE5D8E0DEBFCDBFE4E5F0E040E017C06B
:10007000B591A59135912591059107FD0CC09591FC
:100080008591EF01F92FE82F05900D92A217B30784
:10009000D9F7FE0104C01D92A217B307E1F7EB35B3
:1000A000F40731F70E94A4000C946405F894FFCF84
:1000B0002068656C6C6F20776F726C6400002000A4
:1000C00048692C2049276D2046617261682041688B
:1000D0006D656420323420207965617273206F6C05
:1000E000640049276D206672657368206D656368DA
:1000F0006174726F6E69637320656E672E202000D5
:100100006920616D207374617274696E67206E6519
:10011000772063686170746572200020696E206DBD
:1001200079206C69666520617320616E00656D627F
:10013000656464656420656E67696E6565722069D3
:070140006E204E544920001F
:10014800CF93DF93CDB7DEB768970FB6F894DEBFCD
:100158000FBECDBF0E94530460EB70E080E00E94A8
:10016800CC042DEB30E040E060E081E00E945505D2
:100178002FE38DE093E0215080409040E1F700C0EC
:1001880000000E946F056EEB70E080E00E94CC04D6
:1001980082ED94E00E9487042FE38DE093E02150E4
:1001A80080409040E1F700C000000E946F0580E4A5
:1001B8000E94CB0188E0E0E6F0E0DE0111960190B4
:1001C8000D928A95E1F7CE0101960E94AA0485E86E
:1001D8000E94CB0180E00E9470022FE38DE093E043
:1001E800215080409040E1F700C0000088E0E8E638
:1001F800F0E0DE01199601900D928A95E1F788E00A
:10020800E0E7F0E0DE01519601900D928A95E1F762
:10021800CE0109960E94AA0485E80E94CB0180E0DD
:100228000E947002CE0101960E94AA0485E80E94ED
:10023800CB0180E00E947002CE0109960E94AA04B8
:1002480085E80E94CB0180E00E947002CE010196F1
:100258000E94AA0485E80E94CB0180E00E947002F7
:10026800CE0141960E94AA0485E80E94CB0180E055
:100278000E94700220EC30E040E066E080E00E94DE
:1002880055052FE38DE093E0215080409040E1F741
:1002980000C000000E946F0580E40E94CB01CE01DF
:1002A80041960E94AA0485E80E94CB0180E00E9442
:1002B800700222EE30E040E066E080E00E945505E2
:1002C8002FEB87E299E0215080409040E1F700C091
:1002D80000000E946F0580E40E94CB01CE01419688
:1002E8000E94AA0485E80E94CB0180E00E94700267
:1002F80020E031E040E066E080E00E9455052FEB09
:1003080087E299E0215080409040E1F700C000006A
:100318000E946F0580E40E94CB01CE0141960E94A5
:10032800AA0485E80E94CB0180E00E9470022BE1BC
:1003380031E040E066E080E00E9455052FEB87E25F
:1003480099E0215080409040E1F700C000000E94F1
:100358006F0580E40E94CB01CE0141960E94AA0459
:1003680085E80E94CB0180E00E9470022DE231E016
:1003780040E066E080E00E9455052FEB87E299E0B7
:0E038800215080409040E1F700C00000FFCF00
:10039600CF93C82F40E061E080E00E94880389EF98
:1003A60090E00197F1F700C0000041E062E080E0D4
:1003B6000E94880389EF90E00197F1F700C00000E2
:1003C6004C2F407150E05595479555954795559555
:1003D60047955595479563E080E00E9488034C2F2A
:1003E600407250E0559547955595479555954795D3
:1003F600559547955595479564E080E00E9488039A
:100406004C2F407450E0042E452F000C441F550B12
:10041600000C441F551F65E080E00E9488034C2FA6
:10042600441F4427441F66E080E00E94880389EF4A
:1004360090E00197F1F700C0000040E062E080E044
:100446000E94880389EF90E00197F1F700C0000051
:1004560041E062E080E00E94880389EF90E0019726
:10046600F1F700C000004C2F417063E080E00E946D
:1004760088034C2F427050E05595479564E080E024
:100486000E9488034C2F447050E05595479555952A
:10049600479565E080E00E948803C8704C2F50E0C5
:1004A60055954795559547955595479566E080E04E
:1004B6000E94880389EF90E00197F1F700C00000E1
:1004C60040E062E080E00E94880389EF90E00197B7
:0A04D600F1F700C00000CF91089577
:1004E000CF93C82F41E061E080E00E94880389EF4C
:1004F00090E00197F1F700C0000041E062E080E089
:100500000E94880389EF90E00197F1F700C0000096
:100510004C2F407150E05595479555954795559509
:1005200047955595479563E080E00E9488034C2FDE
:10053000407250E055954795559547955595479587
:10054000559547955595479564E080E00E9488034E
:100550004C2F407450E0042E452F000C441F550BC7
:10056000000C441F551F65E080E00E9488034C2F5B
:10057000441F4427441F66E080E00E94880389EFFF
:1005800090E00197F1F700C0000040E062E080E0F9
:100590000E94880389EF90E00197F1F700C0000006
:1005A00041E062E080E00E94880389EF90E00197DB
:1005B000F1F700C000004C2F417063E080E00E9422
:1005C00088034C2F427050E05595479564E080E0D9
:1005D0000E9488034C2F447050E0559547955595DF
:1005E000479565E080E00E948803C8704C2F50E07A
:1005F00055954795559547955595479566E080E003
:100600000E94880389EF90E00197F1F700C0000095
:1006100040E062E080E00E94880389EF90E001976B
:0A062000F1F700C00000CF9108952B
:10062A00683008F06FC0843008F06CC0813001F186
:10063A0030F08230B1F1833009F44CC00895413072
:10064A0059F42AB381E090E002C0880F991F6A9595
:10065A00E2F7822B8ABB08952AB381E090E002C0B8
:10066A00880F991F6A95E2F7809582238ABB0895BD
:10067A00413059F427B381E090E002C0880F991FF6
:10068A006A95E2F7822B87BB089527B381E090E051
:10069A0002C0880F991F6A95E2F78095822387BB6B
:1006AA000895413059F424B381E090E002C0880FE4
:1006BA00991F6A95E2F7822B84BB089524B381E0DF
:1006CA0090E002C0880F991F6A95E2F7809582230D
:1006DA0084BB0895413059F421B381E090E002C00F
:1006EA00880F991F6A95E2F7822B81BB089521B37F
:1006FA0081E090E002C0880F991F6A95E2F7809521
:06070A00822381BB08956B
:10071000683008F06FC0843008F06CC0813001F19F
:1007200030F08230B1F1833009F44CC0089541308B
:1007300059F42BB381E090E002C0880F991F6A95AD
:10074000E2F7822B8BBB08952BB381E090E002C0CF
:10075000880F991F6A95E2F7809582238BBB0895D5
:10076000413059F428B381E090E002C0880F991F0E
:100770006A95E2F7822B88BB089528B381E090E068
:1007800002C0880F991F6A95E2F78095822388BB83
:100790000895413059F425B381E090E002C0880FFC
:1007A000991F6A95E2F7822B85BB089525B381E0F6
:1007B00090E002C0880F991F6A95E2F78095822326
:1007C00085BB0895413059F422B381E090E002C026
:1007D000880F991F6A95E2F7822B82BB089522B396
:1007E00081E090E002C0880F991F6A95E2F780953A
:0607F000822382BB089584
:1007F6008F929F92AF92BF92CF92DF92EF92FF922B
:100806000F931F93CF93DF93FC015B017A0199232A
:1008160024F488248A94982C03C088248394912CE9
:10082600C0E0D0E001C0E8018E010F5F1F4F6501F7
:10083600CC0EDD1ECF01B7010E942D059C01992328
:1008460024F422273327281B390BD901A858BF4F78
:100856008C91D6018C93CF01B7010E942D05FB0127
:10086600309709F7992044F4F501E00FF11F8DE266
:1008760080838E010E5F1F4FF501E00FF11F10827E
:10088600C5010E94E704DF91CF911F910F91FF9060
:10089600EF90DF90CF90BF90AF909F908F9008958C
:1008A60041E061E080E00E94150341E062E080E003
:1008B6000E94150387E893E10197F1F700C0000055
:1008C60041E063E080E00E94150341E064E080E0DF
:1008D6000E94150341E065E080E00E94150341E0B7
:1008E60066E080E00E94150383E30E94CB0182E369
:1008F6000E94CB0188E20E94CB018CE00E94CB01D2
:0809060081E00E94CB0108957D
:10090E000F931F93CF93DF93CDB7DEB760970FB6DC
:10091E00F894DEBF0FBECDBF4AE050E08E010F5FF0
:10092E001F4FB8010E94FB03B80180E80E94CC045F
:10093E0060960FB6F894DEBF0FBECDBFDF91CF919C
:06094E001F910F910895B6
:100954000F931F93CF938C0180E40E94CB0187EA0D
:1009640091E60197F1F700C00000C0E00DC0F80166
:10097400EC0FF11D80810E94700287EA91E60197D5
:10098400F1F700C00000CF5FC83088F3CF911F910A
:040994000F91089522
:10099800CF92DF92EF92CF936B01E82EC0E003C0B5
:1009A8000E947002CF5FAE2DC6018C0F911DA11D54
:1009B800FC018491A7FD80818111F2CFCF91EF9046
:0609C800DF90CF900895BE
:1009CE00CF93DF93EC01BC0180E80E9417050197DD
:1009DE00FE01E80FF91F07C0DE018D91908198830B
:1009EE0080833197ED01CE17DF07B0F3DF91CF9102
:0209FE0008955A
:100A0000813031F070F0823031F0833039F00AC03B
:100A100090E4960F07C090E1960F04C090E5960F02
:0E0A200001C0962F892F80680E94CB01089597
:100A2E00CF92DF92EF926B01E82EA82FCB01FC0143
:100A3E002491A7FD2081222319F00196A11DF7CF45
:0C0A4E008C199D09EF90DF90CF90089567
:100A5A0097FB072E16F4009407D077FD09D00E9461
:100A6A00410507FC05D03EF4909581959F4F089566
:080A7A00709561957F4F08950E
:100A8200AA1BBB1B51E107C0AA1FBB1FA617B707B2
:100A920010F0A61BB70B881F991F5A95A9F78095CE
:080AA2009095BC01CD010895FF
:100AAA00CF92DF92EF926901E42E0E9400058E2D0B
:0E0ABA00B6010E94CC04EF90DF90CF9008951B
:100AC800EC010E9478050E947705CE010E94790505
:060AD800CE010E9475052D
:080ADE0081E00E94CB010895A4
:040AE6000C9400006C
:040AEA000E94560010
:020AEE00089569
:020AF000089567
:020AF200089565
:100AF4000E0405061C040A0A0E04140C07040A0A50
:080B040000000E0E0E050E0E9E
:0B0B0C003031323334353637383900D1
:00000001FF
